:100000000C942A000C9434000C9434000C943400AA
:100010000C9434000C9434000C9434000C94340090
:100020000C9434000C9434000C9434000C94340080
:100030000C9434000C9434000C9434000C94340070
:100040000C9434000C9434000C9434000C94340060
:100050000C94340011241FBECFE5D8E0DEBFCDBF25
:100060000E9436000C94A6000C9400000E943F00F1
:100070000E9478000E945A0080E090E0089583B7C3
:100080008F7B83BF83B7886083BF80E58CBF83B7D6
:10009000816083BF83B78D7F83BF83B7846083BF55
:1000A00087B3886087BB83B7806183BF83B78F7D49
:1000B00083BF089585B5806485BD85B5877F85BD7F
:1000C00080E483BD82B5877F82BD85B5816085BDB3
:1000D00085B5826085BD85B5846085BD81B3806846
:1000E00081BB85B58F7E85BD85B5806285BD089550
:1000F0008FB581608FBD8FB58D7F8FBD8EB58860C8
:100100008EBD8EB58F7E8EBD80E490E09BBD8ABD96
:1001100099BD88BD8EB581608EBD8EB58D7F8EBD3B
:100120008EB584608EBD81B3806281BB81B38061F6
:1001300081BB8FB58F7B8FBD8FB580688FBD8FB52D
:1001400080618FBD8FB580628FBD0895F894FFCF19
:00000001FF
